{
  "address": "0x5FbDB2315678afecb367f032d93F642f64180aa3",
  "abi": [
    {
      "inputs": [],
      "stateMutability": "nonpayable",
      "type": "constructor"
    },
    {
      "inputs": [],
      "name": "counter",
      "outputs": [
        {
          "internalType": "uint8",
          "name": "",
          "type": "uint8"
        }
      ],
      "stateMutability": "view",
      "type": "function"
    },
    {
      "inputs": [],
      "name": "getBalance",
      "outputs": [
        {
          "internalType": "uint256",
          "name": "",
          "type": "uint256"
        }
      ],
      "stateMutability": "view",
      "type": "function"
    },
    {
      "inputs": [],
      "name": "owner",
      "outputs": [
        {
          "internalType": "address payable",
          "name": "",
          "type": "address"
        }
      ],
      "stateMutability": "view",
      "type": "function"
    },
    {
      "inputs": [],
      "name": "take",
      "outputs": [],
      "stateMutability": "payable",
      "type": "function"
    },
    {
      "inputs": [
        {
          "internalType": "uint256",
          "name": "_amount",
          "type": "uint256"
        }
      ],
      "name": "withdraw",
      "outputs": [],
      "stateMutability": "nonpayable",
      "type": "function"
    },
    {
      "stateMutability": "payable",
      "type": "receive"
    }
  ],
  "transactionHash": "0x8b77a6f1bd07dcb32e8e356f13bc99aaa39fb478ab065f280d63c530caa83b72",
  "args": [],
  "numDeployments": 1,
  "solcInputHash": "a6cf9c28855dfd686641e2c3ddaf7987",
  "bytecode": "0x608060405234801561001057600080fd5b50336000806101000a81548173ffffffffffffffffffffffffffffffffffffffff021916908373ffffffffffffffffffffffffffffffffffffffff16021790555061053f806100606000396000f3fe60806040526004361061004e5760003560e01c806312065fe01461005a578063159090bd146100855780632e1a7d4d1461008f57806361bc221a146100b85780638da5cb5b146100e357610055565b3661005557005b600080fd5b34801561006657600080fd5b5061006f61010e565b60405161007c91906103b2565b60405180910390f35b61008d610116565b005b34801561009b57600080fd5b506100b660048036038101906100b191906102b7565b610193565b005b3480156100c457600080fd5b506100cd61026b565b6040516100da91906103cd565b60405180910390f35b3480156100ef57600080fd5b506100f861027e565b6040516101059190610357565b60405180910390f35b600047905090565b60003411610159576040517f08c379a000000000000000000000000000000000000000000000000000000000815260040161015090610372565b60405180910390fd5b6000601481819054906101000a900460ff168092919061017890610442565b91906101000a81548160ff021916908360ff16021790555050565b60008054906101000a900473ffffffffffffffffffffffffffffffffffffffff1673ffffffffffffffffffffffffffffffffffffffff163373ffffffffffffffffffffffffffffffffffffffff1614610221576040517f08c379a000000000000000000000000000000000000000000000000000000000815260040161021890610392565b60405180910390fd5b3373ffffffffffffffffffffffffffffffffffffffff166108fc829081150290604051600060405180830381858888f19350505050158015610267573d6000803e3d6000fd5b5050565b600060149054906101000a900460ff1681565b60008054906101000a900473ffffffffffffffffffffffffffffffffffffffff1681565b6000813590506102b1816104f2565b92915050565b6000602082840312156102cd576102cc61049b565b5b60006102db848285016102a2565b91505092915050565b6102ed816103f9565b82525050565b60006103006008836103e8565b915061030b826104a0565b602082019050919050565b60006103236014836103e8565b915061032e826104c9565b602082019050919050565b6103428161042b565b82525050565b61035181610435565b82525050565b600060208201905061036c60008301846102e4565b92915050565b6000602082019050818103600083015261038b816102f3565b9050919050565b600060208201905081810360008301526103ab81610316565b9050919050565b60006020820190506103c76000830184610339565b92915050565b60006020820190506103e26000830184610348565b92915050565b600082825260208201905092915050565b60006104048261040b565b9050919050565b600073ffffffffffffffffffffffffffffffffffffffff82169050919050565b6000819050919050565b600060ff82169050919050565b600061044d82610435565b915060ff8214156104615761046061046c565b5b600182019050919050565b7f4e487b7100000000000000000000000000000000000000000000000000000000600052601160045260246000fd5b600080fd5b7f4769766520657468000000000000000000000000000000000000000000000000600082015250565b7f4f6e6c79206f776e657220776974686472617773000000000000000000000000600082015250565b6104fb8161042b565b811461050657600080fd5b5056fea2646970667358221220f4543337478fc3a5364238b4a287f9b835d4f2e9eb50271e8e1ec7d22563c85e64736f6c63430008060033",
  "devdoc": {
    "kind": "dev",
    "methods": {},
    "version": 1
  },
  "userdoc": {
    "kind": "user",
    "methods": {},
    "version": 1
  },
  "storageLayout": {
    "storage": [
      {
        "astId": 3,
        "contract": "contracts/EtherWallet.sol:EtherWallet",
        "label": "owner",
        "offset": 0,
        "slot": "0",
        "type": "t_address_payable"
      },
      {
        "astId": 5,
        "contract": "contracts/EtherWallet.sol:EtherWallet",
        "label": "counter",
        "offset": 20,
        "slot": "0",
        "type": "t_uint8"
      }
    ],
    "types": {
      "t_address_payable": {
        "encoding": "inplace",
        "label": "address payable",
        "numberOfBytes": "20"
      },
      "t_uint8": {
        "encoding": "inplace",
        "label": "uint8",
        "numberOfBytes": "1"
      }
    }
  }
}