{
  "address": "0x2922d830a30570fdb15d256569d32Ea62C9BA60c",
  "abi": [
    {
      "inputs": [],
      "stateMutability": "nonpayable",
      "type": "constructor"
    },
    {
      "inputs": [],
      "name": "counter",
      "outputs": [
        {
          "internalType": "uint8",
          "name": "",
          "type": "uint8"
        }
      ],
      "stateMutability": "view",
      "type": "function"
    },
    {
      "inputs": [],
      "name": "getBalance",
      "outputs": [
        {
          "internalType": "uint256",
          "name": "",
          "type": "uint256"
        }
      ],
      "stateMutability": "view",
      "type": "function"
    },
    {
      "inputs": [],
      "name": "owner",
      "outputs": [
        {
          "internalType": "address payable",
          "name": "",
          "type": "address"
        }
      ],
      "stateMutability": "view",
      "type": "function"
    },
    {
      "inputs": [],
      "name": "take",
      "outputs": [],
      "stateMutability": "payable",
      "type": "function"
    },
    {
      "inputs": [
        {
          "internalType": "uint256",
          "name": "_amount",
          "type": "uint256"
        }
      ],
      "name": "withdraw",
      "outputs": [],
      "stateMutability": "nonpayable",
      "type": "function"
    },
    {
      "stateMutability": "payable",
      "type": "receive"
    }
  ],
  "transactionHash": "0x33699c0ac62272c21d278ddd22bc648a40df7d1473ebf6308f4217f92aa608d9",
  "args": [],
  "numDeployments": 1,
  "solcInputHash": "fe829c110b564dd768ab764062c359e2",
  "bytecode": "0x608060405234801561001057600080fd5b50336000806101000a81548173ffffffffffffffffffffffffffffffffffffffff021916908373ffffffffffffffffffffffffffffffffffffffff1602179055506104d8806100606000396000f3fe60806040526004361061004e5760003560e01c806312065fe01461005a578063159090bd146100855780632e1a7d4d1461008f57806361bc221a146100b85780638da5cb5b146100e357610055565b3661005557005b600080fd5b34801561006657600080fd5b5061006f61010e565b60405161007c91906103a4565b60405180910390f35b61008d610116565b005b34801561009b57600080fd5b506100b660048036038101906100b191906102a9565b610185565b005b3480156100c457600080fd5b506100cd61025d565b6040516100da91906103bf565b60405180910390f35b3480156100ef57600080fd5b506100f8610270565b6040516101059190610349565b60405180910390f35b600047905090565b60003411610159576040517f08c379a000000000000000000000000000000000000000000000000000000000815260040161015090610364565b60405180910390fd5b600060149054906101000a900460ff16600060146101000a81548160ff021916908360ff160217905550565b60008054906101000a900473ffffffffffffffffffffffffffffffffffffffff1673ffffffffffffffffffffffffffffffffffffffff163373ffffffffffffffffffffffffffffffffffffffff1614610213576040517f08c379a000000000000000000000000000000000000000000000000000000000815260040161020a90610384565b60405180910390fd5b3373ffffffffffffffffffffffffffffffffffffffff166108fc829081150290604051600060405180830381858888f19350505050158015610259573d6000803e3d6000fd5b5050565b600060149054906101000a900460ff1681565b60008054906101000a900473ffffffffffffffffffffffffffffffffffffffff1681565b6000813590506102a38161048b565b92915050565b6000602082840312156102bf576102be610434565b5b60006102cd84828501610294565b91505092915050565b6102df816103eb565b82525050565b60006102f26008836103da565b91506102fd82610439565b602082019050919050565b60006103156014836103da565b915061032082610462565b602082019050919050565b6103348161041d565b82525050565b61034381610427565b82525050565b600060208201905061035e60008301846102d6565b92915050565b6000602082019050818103600083015261037d816102e5565b9050919050565b6000602082019050818103600083015261039d81610308565b9050919050565b60006020820190506103b9600083018461032b565b92915050565b60006020820190506103d4600083018461033a565b92915050565b600082825260208201905092915050565b60006103f6826103fd565b9050919050565b600073ffffffffffffffffffffffffffffffffffffffff82169050919050565b6000819050919050565b600060ff82169050919050565b600080fd5b7f4769766520657468000000000000000000000000000000000000000000000000600082015250565b7f4f6e6c79206f776e657220776974686472617773000000000000000000000000600082015250565b6104948161041d565b811461049f57600080fd5b5056fea26469706673582212209a1f266f22fc86a0e454dcabfc19e242b403d1243fe1e68bbcd4e5bf8359eb4064736f6c63430008060033",
  "devdoc": {
    "kind": "dev",
    "methods": {},
    "version": 1
  },
  "userdoc": {
    "kind": "user",
    "methods": {},
    "version": 1
  },
  "storageLayout": {
    "storage": [
      {
        "astId": 3,
        "contract": "contracts/EtherWallet.sol:EtherWallet",
        "label": "owner",
        "offset": 0,
        "slot": "0",
        "type": "t_address_payable"
      },
      {
        "astId": 5,
        "contract": "contracts/EtherWallet.sol:EtherWallet",
        "label": "counter",
        "offset": 20,
        "slot": "0",
        "type": "t_uint8"
      }
    ],
    "types": {
      "t_address_payable": {
        "encoding": "inplace",
        "label": "address payable",
        "numberOfBytes": "20"
      },
      "t_uint8": {
        "encoding": "inplace",
        "label": "uint8",
        "numberOfBytes": "1"
      }
    }
  }
}